{
  "_format": "hh3-artifact-1",
  "contractName": "HospitalMedLedger",
  "sourceName": "contracts/HospitalMedLedger.sol",
  "abi": [
    {
      "inputs": [],
      "stateMutability": "nonpayable",
      "type": "constructor"
    },
    {
      "inputs": [],
      "name": "AccessControlBadConfirmation",
      "type": "error"
    },
    {
      "inputs": [
        {
          "internalType": "address",
          "name": "account",
          "type": "address"
        },
        {
          "internalType": "bytes32",
          "name": "neededRole",
          "type": "bytes32"
        }
      ],
      "name": "AccessControlUnauthorizedAccount",
      "type": "error"
    },
    {
      "anonymous": false,
      "inputs": [
        {
          "indexed": true,
          "internalType": "address",
          "name": "wallet",
          "type": "address"
        },
        {
          "indexed": false,
          "internalType": "string",
          "name": "name",
          "type": "string"
        },
        {
          "indexed": false,
          "internalType": "string",
          "name": "specialization",
          "type": "string"
        }
      ],
      "name": "DoctorAdded",
      "type": "event"
    },
    {
      "anonymous": false,
      "inputs": [
        {
          "indexed": true,
          "internalType": "address",
          "name": "wallet",
          "type": "address"
        }
      ],
      "name": "DoctorRemoved",
      "type": "event"
    },
    {
      "anonymous": false,
      "inputs": [
        {
          "indexed": true,
          "internalType": "bytes32",
          "name": "role",
          "type": "bytes32"
        },
        {
          "indexed": true,
          "internalType": "bytes32",
          "name": "previousAdminRole",
          "type": "bytes32"
        },
        {
          "indexed": true,
          "internalType": "bytes32",
          "name": "newAdminRole",
          "type": "bytes32"
        }
      ],
      "name": "RoleAdminChanged",
      "type": "event"
    },
    {
      "anonymous": false,
      "inputs": [
        {
          "indexed": true,
          "internalType": "bytes32",
          "name": "role",
          "type": "bytes32"
        },
        {
          "indexed": true,
          "internalType": "address",
          "name": "account",
          "type": "address"
        },
        {
          "indexed": true,
          "internalType": "address",
          "name": "sender",
          "type": "address"
        }
      ],
      "name": "RoleGranted",
      "type": "event"
    },
    {
      "anonymous": false,
      "inputs": [
        {
          "indexed": true,
          "internalType": "bytes32",
          "name": "role",
          "type": "bytes32"
        },
        {
          "indexed": true,
          "internalType": "address",
          "name": "account",
          "type": "address"
        },
        {
          "indexed": true,
          "internalType": "address",
          "name": "sender",
          "type": "address"
        }
      ],
      "name": "RoleRevoked",
      "type": "event"
    },
    {
      "anonymous": false,
      "inputs": [
        {
          "indexed": true,
          "internalType": "uint256",
          "name": "slotId",
          "type": "uint256"
        },
        {
          "indexed": true,
          "internalType": "address",
          "name": "patient",
          "type": "address"
        },
        {
          "indexed": true,
          "internalType": "address",
          "name": "doctor",
          "type": "address"
        }
      ],
      "name": "SlotBooked",
      "type": "event"
    },
    {
      "anonymous": false,
      "inputs": [
        {
          "indexed": true,
          "internalType": "uint256",
          "name": "slotId",
          "type": "uint256"
        },
        {
          "indexed": true,
          "internalType": "address",
          "name": "patient",
          "type": "address"
        }
      ],
      "name": "SlotCancelled",
      "type": "event"
    },
    {
      "inputs": [],
      "name": "DEFAULT_ADMIN_ROLE",
      "outputs": [
        {
          "internalType": "bytes32",
          "name": "",
          "type": "bytes32"
        }
      ],
      "stateMutability": "view",
      "type": "function"
    },
    {
      "inputs": [],
      "name": "DOCTOR_ROLE",
      "outputs": [
        {
          "internalType": "bytes32",
          "name": "",
          "type": "bytes32"
        }
      ],
      "stateMutability": "view",
      "type": "function"
    },
    {
      "inputs": [
        {
          "internalType": "address",
          "name": "_wallet",
          "type": "address"
        },
        {
          "internalType": "string",
          "name": "_name",
          "type": "string"
        },
        {
          "internalType": "string",
          "name": "_specialization",
          "type": "string"
        }
      ],
      "name": "addDoctor",
      "outputs": [],
      "stateMutability": "nonpayable",
      "type": "function"
    },
    {
      "inputs": [
        {
          "internalType": "uint256",
          "name": "slotId",
          "type": "uint256"
        },
        {
          "internalType": "address",
          "name": "doctor",
          "type": "address"
        }
      ],
      "name": "bookSlot",
      "outputs": [],
      "stateMutability": "nonpayable",
      "type": "function"
    },
    {
      "inputs": [
        {
          "internalType": "uint256",
          "name": "",
          "type": "uint256"
        }
      ],
      "name": "bookings",
      "outputs": [
        {
          "internalType": "uint256",
          "name": "slotId",
          "type": "uint256"
        },
        {
          "internalType": "address",
          "name": "patient",
          "type": "address"
        },
        {
          "internalType": "bool",
          "name": "isBooked",
          "type": "bool"
        }
      ],
      "stateMutability": "view",
      "type": "function"
    },
    {
      "inputs": [
        {
          "internalType": "uint256",
          "name": "slotId",
          "type": "uint256"
        }
      ],
      "name": "cancelSlot",
      "outputs": [],
      "stateMutability": "nonpayable",
      "type": "function"
    },
    {
      "inputs": [
        {
          "internalType": "uint256",
          "name": "",
          "type": "uint256"
        }
      ],
      "name": "doctorList",
      "outputs": [
        {
          "internalType": "address",
          "name": "",
          "type": "address"
        }
      ],
      "stateMutability": "view",
      "type": "function"
    },
    {
      "inputs": [
        {
          "internalType": "address",
          "name": "",
          "type": "address"
        }
      ],
      "name": "doctors",
      "outputs": [
        {
          "internalType": "address",
          "name": "wallet",
          "type": "address"
        },
        {
          "internalType": "string",
          "name": "name",
          "type": "string"
        },
        {
          "internalType": "string",
          "name": "specialization",
          "type": "string"
        },
        {
          "internalType": "bool",
          "name": "isActive",
          "type": "bool"
        }
      ],
      "stateMutability": "view",
      "type": "function"
    },
    {
      "inputs": [
        {
          "internalType": "address",
          "name": "_wallet",
          "type": "address"
        }
      ],
      "name": "getDoctor",
      "outputs": [
        {
          "components": [
            {
              "internalType": "address",
              "name": "wallet",
              "type": "address"
            },
            {
              "internalType": "string",
              "name": "name",
              "type": "string"
            },
            {
              "internalType": "string",
              "name": "specialization",
              "type": "string"
            },
            {
              "internalType": "bool",
              "name": "isActive",
              "type": "bool"
            }
          ],
          "internalType": "struct HospitalMedLedger.Doctor",
          "name": "",
          "type": "tuple"
        }
      ],
      "stateMutability": "view",
      "type": "function"
    },
    {
      "inputs": [
        {
          "internalType": "bytes32",
          "name": "role",
          "type": "bytes32"
        }
      ],
      "name": "getRoleAdmin",
      "outputs": [
        {
          "internalType": "bytes32",
          "name": "",
          "type": "bytes32"
        }
      ],
      "stateMutability": "view",
      "type": "function"
    },
    {
      "inputs": [
        {
          "internalType": "bytes32",
          "name": "role",
          "type": "bytes32"
        },
        {
          "internalType": "address",
          "name": "account",
          "type": "address"
        }
      ],
      "name": "grantRole",
      "outputs": [],
      "stateMutability": "nonpayable",
      "type": "function"
    },
    {
      "inputs": [
        {
          "internalType": "bytes32",
          "name": "role",
          "type": "bytes32"
        },
        {
          "internalType": "address",
          "name": "account",
          "type": "address"
        }
      ],
      "name": "hasRole",
      "outputs": [
        {
          "internalType": "bool",
          "name": "",
          "type": "bool"
        }
      ],
      "stateMutability": "view",
      "type": "function"
    },
    {
      "inputs": [
        {
          "internalType": "address",
          "name": "_wallet",
          "type": "address"
        }
      ],
      "name": "removeDoctor",
      "outputs": [],
      "stateMutability": "nonpayable",
      "type": "function"
    },
    {
      "inputs": [
        {
          "internalType": "bytes32",
          "name": "role",
          "type": "bytes32"
        },
        {
          "internalType": "address",
          "name": "callerConfirmation",
          "type": "address"
        }
      ],
      "name": "renounceRole",
      "outputs": [],
      "stateMutability": "nonpayable",
      "type": "function"
    },
    {
      "inputs": [
        {
          "internalType": "bytes32",
          "name": "role",
          "type": "bytes32"
        },
        {
          "internalType": "address",
          "name": "account",
          "type": "address"
        }
      ],
      "name": "revokeRole",
      "outputs": [],
      "stateMutability": "nonpayable",
      "type": "function"
    },
    {
      "inputs": [
        {
          "internalType": "bytes4",
          "name": "interfaceId",
          "type": "bytes4"
        }
      ],
      "name": "supportsInterface",
      "outputs": [
        {
          "internalType": "bool",
          "name": "",
          "type": "bool"
        }
      ],
      "stateMutability": "view",
      "type": "function"
    }
  ],
  "bytecode": "0x608060405234801562000010575f80fd5b50620000255f801b336200002c60201b60201c565b5062000191565b5f6200003f83836200012760201b60201c565b6200011d5760015f808581526020019081526020015f205f015f8473ffffffffffffffffffffffffffffffffffffffff1673ffffffffffffffffffffffffffffffffffffffff1681526020019081526020015f205f6101000a81548160ff021916908315150217905550620000b96200018a60201b60201c565b73ffffffffffffffffffffffffffffffffffffffff168273ffffffffffffffffffffffffffffffffffffffff16847f2f8788117e7eff1d82e926ec794901d17c78024a50270940304540a733656f0d60405160405180910390a46001905062000121565b5f90505b92915050565b5f805f8481526020019081526020015f205f015f8373ffffffffffffffffffffffffffffffffffffffff1673ffffffffffffffffffffffffffffffffffffffff1681526020019081526020015f205f9054906101000a900460ff16905092915050565b5f33905090565b611c77806200019f5f395ff3fe608060405234801561000f575f80fd5b50600436106100fe575f3560e01c806336568abe11610095578063a217fddf11610064578063a217fddf146102cc578063a9583c22146102ea578063d547741f1461031d578063fec331f214610339576100fe565b806336568abe1461024857806391d148541461026457806398fc90e9146102945780639f294212146102b0576100fe565b8063248a9ca3116100d1578063248a9ca3146101b05780632f04e064146101e05780632f2ff15d1461021057806334b789981461022c576100fe565b806301ffc9a7146101025780630d9d763e14610132578063127ca4b41461014e5780631dab301e1461017e575b5f80fd5b61011c60048036038101906101179190611221565b610357565b6040516101299190611266565b60405180910390f35b61014c600480360381019061014791906112b2565b6103d0565b005b610168600480360381019061016391906112b2565b610557565b604051610175919061131c565b60405180910390f35b610198600480360381019061019391906112b2565b610592565b6040516101a793929190611344565b60405180910390f35b6101ca60048036038101906101c591906113ac565b6105e4565b6040516101d791906113e6565b60405180910390f35b6101fa60048036038101906101f59190611429565b610600565b6040516102079190611563565b60405180910390f35b61022a60048036038101906102259190611583565b6107e5565b005b610246600480360381019061024191906116ed565b610807565b005b610262600480360381019061025d9190611583565b6109fd565b005b61027e60048036038101906102799190611583565b610a78565b60405161028b9190611266565b60405180910390f35b6102ae60048036038101906102a99190611429565b610adb565b005b6102ca60048036038101906102c59190611775565b610bb0565b005b6102d4610d27565b6040516102e191906113e6565b60405180910390f35b61030460048036038101906102ff9190611429565b610d2d565b60405161031494939291906117fb565b60405180910390f35b61033760048036038101906103329190611583565b610e90565b005b610341610eb2565b60405161034e91906113e6565b60405180910390f35b5f7f7965db0b000000000000000000000000000000000000000000000000000000007bffffffffffffffffffffffffffffffffffffffffffffffffffffffff1916827bffffffffffffffffffffffffffffffffffffffffffffffffffffffff191614806103c957506103c882610ed6565b5b9050919050565b3373ffffffffffffffffffffffffffffffffffffffff1660025f8381526020019081526020015f206001015f9054906101000a900473ffffffffffffffffffffffffffffffffffffffff1673ffffffffffffffffffffffffffffffffffffffff16148061044557506104445f801b33610a78565b5b610484576040517f08c379a000000000000000000000000000000000000000000000000000000000815260040161047b90611896565b60405180910390fd5b5f60025f8381526020019081526020015f206001015f9054906101000a900473ffffffffffffffffffffffffffffffffffffffff16905060025f8381526020019081526020015f205f8082015f9055600182015f6101000a81549073ffffffffffffffffffffffffffffffffffffffff02191690556001820160146101000a81549060ff021916905550508073ffffffffffffffffffffffffffffffffffffffff16827f73f1e82f9baaa892cea145120b87eb368655bb87a33560d89221928578b4655d60405160405180910390a35050565b60038181548110610566575f80fd5b905f5260205f20015f915054906101000a900473ffffffffffffffffffffffffffffffffffffffff1681565b6002602052805f5260405f205f91509050805f015490806001015f9054906101000a900473ffffffffffffffffffffffffffffffffffffffff16908060010160149054906101000a900460ff16905083565b5f805f8381526020019081526020015f20600101549050919050565b61060861117d565b60015f8373ffffffffffffffffffffffffffffffffffffffff1673ffffffffffffffffffffffffffffffffffffffff1681526020019081526020015f206040518060800160405290815f82015f9054906101000a900473ffffffffffffffffffffffffffffffffffffffff1673ffffffffffffffffffffffffffffffffffffffff1673ffffffffffffffffffffffffffffffffffffffff1681526020016001820180546106b4906118e1565b80601f01602080910402602001604051908101604052809291908181526020018280546106e0906118e1565b801561072b5780601f106107025761010080835404028352916020019161072b565b820191905f5260205f20905b81548152906001019060200180831161070e57829003601f168201915b50505050508152602001600282018054610744906118e1565b80601f0160208091040260200160405190810160405280929190818152602001828054610770906118e1565b80156107bb5780601f10610792576101008083540402835291602001916107bb565b820191905f5260205f20905b81548152906001019060200180831161079e57829003601f168201915b50505050508152602001600382015f9054906101000a900460ff1615151515815250509050919050565b6107ee826105e4565b6107f781610f3f565b6108018383610f53565b50505050565b5f801b61081381610f3f565b60405180608001604052808573ffffffffffffffffffffffffffffffffffffffff1681526020018481526020018381526020016001151581525060015f8673ffffffffffffffffffffffffffffffffffffffff1673ffffffffffffffffffffffffffffffffffffffff1681526020019081526020015f205f820151815f015f6101000a81548173ffffffffffffffffffffffffffffffffffffffff021916908373ffffffffffffffffffffffffffffffffffffffff16021790555060208201518160010190816108e39190611aae565b5060408201518160020190816108f99190611aae565b506060820151816003015f6101000a81548160ff0219169083151502179055509050506109467f0af1dac7dea2fd7f7738119cec7df099dfad49aa9d2e7d17ba6b60f63ae7411f85610f53565b50600384908060018154018082558091505060019003905f5260205f20015f9091909190916101000a81548173ffffffffffffffffffffffffffffffffffffffff021916908373ffffffffffffffffffffffffffffffffffffffff1602179055508373ffffffffffffffffffffffffffffffffffffffff167f9388661dcd7dc6cff9b4e22ab9459ac0a2682f86cb52fc7a669a6e7f062bce4c84846040516109ef929190611b7d565b60405180910390a250505050565b610a0561103c565b73ffffffffffffffffffffffffffffffffffffffff168173ffffffffffffffffffffffffffffffffffffffff1614610a69576040517f6697b23200000000000000000000000000000000000000000000000000000000815260040160405180910390fd5b610a738282611043565b505050565b5f805f8481526020019081526020015f205f015f8373ffffffffffffffffffffffffffffffffffffffff1673ffffffffffffffffffffffffffffffffffffffff1681526020019081526020015f205f9054906101000a900460ff16905092915050565b5f801b610ae781610f3f565b5f60015f8473ffffffffffffffffffffffffffffffffffffffff1673ffffffffffffffffffffffffffffffffffffffff1681526020019081526020015f206003015f6101000a81548160ff021916908315150217905550610b687f0af1dac7dea2fd7f7738119cec7df099dfad49aa9d2e7d17ba6b60f63ae7411f83611043565b508173ffffffffffffffffffffffffffffffffffffffff167f493d7cf6a7c880406a55654d6727464ea088bd01d40498e1987a327e68961ab860405160405180910390a25050565b60025f8381526020019081526020015f2060010160149054906101000a900460ff1615610c12576040517f08c379a0000000000000000000000000000000000000000000000000000000008152600401610c0990611bfc565b60405180910390fd5b60405180606001604052808381526020013373ffffffffffffffffffffffffffffffffffffffff1681526020016001151581525060025f8481526020019081526020015f205f820151815f01556020820151816001015f6101000a81548173ffffffffffffffffffffffffffffffffffffffff021916908373ffffffffffffffffffffffffffffffffffffffff16021790555060408201518160010160146101000a81548160ff0219169083151502179055509050508073ffffffffffffffffffffffffffffffffffffffff163373ffffffffffffffffffffffffffffffffffffffff16837fffaac21fe899aba7ec80b7e8efa500c52b66380b417d7372f5baf6ecc35db09160405160405180910390a45050565b5f801b81565b6001602052805f5260405f205f91509050805f015f9054906101000a900473ffffffffffffffffffffffffffffffffffffffff1690806001018054610d71906118e1565b80601f0160208091040260200160405190810160405280929190818152602001828054610d9d906118e1565b8015610de85780601f10610dbf57610100808354040283529160200191610de8565b820191905f5260205f20905b815481529060010190602001808311610dcb57829003601f168201915b505050505090806002018054610dfd906118e1565b80601f0160208091040260200160405190810160405280929190818152602001828054610e29906118e1565b8015610e745780601f10610e4b57610100808354040283529160200191610e74565b820191905f5260205f20905b815481529060010190602001808311610e5757829003601f168201915b505050505090806003015f9054906101000a900460ff16905084565b610e99826105e4565b610ea281610f3f565b610eac8383611043565b50505050565b7f0af1dac7dea2fd7f7738119cec7df099dfad49aa9d2e7d17ba6b60f63ae7411f81565b5f7f01ffc9a7000000000000000000000000000000000000000000000000000000007bffffffffffffffffffffffffffffffffffffffffffffffffffffffff1916827bffffffffffffffffffffffffffffffffffffffffffffffffffffffff1916149050919050565b610f5081610f4b61103c565b61112c565b50565b5f610f5e8383610a78565b6110325760015f808581526020019081526020015f205f015f8473ffffffffffffffffffffffffffffffffffffffff1673ffffffffffffffffffffffffffffffffffffffff1681526020019081526020015f205f6101000a81548160ff021916908315150217905550610fcf61103c565b73ffffffffffffffffffffffffffffffffffffffff168273ffffffffffffffffffffffffffffffffffffffff16847f2f8788117e7eff1d82e926ec794901d17c78024a50270940304540a733656f0d60405160405180910390a460019050611036565b5f90505b92915050565b5f33905090565b5f61104e8383610a78565b15611122575f805f8581526020019081526020015f205f015f8473ffffffffffffffffffffffffffffffffffffffff1673ffffffffffffffffffffffffffffffffffffffff1681526020019081526020015f205f6101000a81548160ff0219169083151502179055506110bf61103c565b73ffffffffffffffffffffffffffffffffffffffff168273ffffffffffffffffffffffffffffffffffffffff16847ff6391f5c32d9c69d2a47ea670b442974b53935d1edc7fd64eb21e047a839171b60405160405180910390a460019050611126565b5f90505b92915050565b6111368282610a78565b6111795780826040517fe2517d3f000000000000000000000000000000000000000000000000000000008152600401611170929190611c1a565b60405180910390fd5b5050565b60405180608001604052805f73ffffffffffffffffffffffffffffffffffffffff16815260200160608152602001606081526020015f151581525090565b5f604051905090565b5f80fd5b5f80fd5b5f7fffffffff0000000000000000000000000000000000000000000000000000000082169050919050565b611200816111cc565b811461120a575f80fd5b50565b5f8135905061121b816111f7565b92915050565b5f60208284031215611236576112356111c4565b5b5f6112438482850161120d565b91505092915050565b5f8115159050919050565b6112608161124c565b82525050565b5f6020820190506112795f830184611257565b92915050565b5f819050919050565b6112918161127f565b811461129b575f80fd5b50565b5f813590506112ac81611288565b92915050565b5f602082840312156112c7576112c66111c4565b5b5f6112d48482850161129e565b91505092915050565b5f73ffffffffffffffffffffffffffffffffffffffff82169050919050565b5f611306826112dd565b9050919050565b611316816112fc565b82525050565b5f60208201905061132f5f83018461130d565b92915050565b61133e8161127f565b82525050565b5f6060820190506113575f830186611335565b611364602083018561130d565b6113716040830184611257565b949350505050565b5f819050919050565b61138b81611379565b8114611395575f80fd5b50565b5f813590506113a681611382565b92915050565b5f602082840312156113c1576113c06111c4565b5b5f6113ce84828501611398565b91505092915050565b6113e081611379565b82525050565b5f6020820190506113f95f8301846113d7565b92915050565b611408816112fc565b8114611412575f80fd5b50565b5f81359050611423816113ff565b92915050565b5f6020828403121561143e5761143d6111c4565b5b5f61144b84828501611415565b91505092915050565b61145d816112fc565b82525050565b5f81519050919050565b5f82825260208201905092915050565b5f5b8381101561149a57808201518184015260208101905061147f565b5f8484015250505050565b5f601f19601f8301169050919050565b5f6114bf82611463565b6114c9818561146d565b93506114d981856020860161147d565b6114e2816114a5565b840191505092915050565b6114f68161124c565b82525050565b5f608083015f8301516115115f860182611454565b506020830151848203602086015261152982826114b5565b9150506040830151848203604086015261154382826114b5565b915050606083015161155860608601826114ed565b508091505092915050565b5f6020820190508181035f83015261157b81846114fc565b905092915050565b5f8060408385031215611599576115986111c4565b5b5f6115a685828601611398565b92505060206115b785828601611415565b9150509250929050565b5f80fd5b5f80fd5b7f4e487b71000000000000000000000000000000000000000000000000000000005f52604160045260245ffd5b6115ff826114a5565b810181811067ffffffffffffffff8211171561161e5761161d6115c9565b5b80604052505050565b5f6116306111bb565b905061163c82826115f6565b919050565b5f67ffffffffffffffff82111561165b5761165a6115c9565b5b611664826114a5565b9050602081019050919050565b828183375f83830152505050565b5f61169161168c84611641565b611627565b9050828152602081018484840111156116ad576116ac6115c5565b5b6116b8848285611671565b509392505050565b5f82601f8301126116d4576116d36115c1565b5b81356116e484826020860161167f565b91505092915050565b5f805f60608486031215611704576117036111c4565b5b5f61171186828701611415565b935050602084013567ffffffffffffffff811115611732576117316111c8565b5b61173e868287016116c0565b925050604084013567ffffffffffffffff81111561175f5761175e6111c8565b5b61176b868287016116c0565b9150509250925092565b5f806040838503121561178b5761178a6111c4565b5b5f6117988582860161129e565b92505060206117a985828601611415565b9150509250929050565b5f82825260208201905092915050565b5f6117cd82611463565b6117d781856117b3565b93506117e781856020860161147d565b6117f0816114a5565b840191505092915050565b5f60808201905061180e5f83018761130d565b818103602083015261182081866117c3565b9050818103604083015261183481856117c3565b90506118436060830184611257565b95945050505050565b7f4e6f7420617574686f72697a656420746f2063616e63656c00000000000000005f82015250565b5f6118806018836117b3565b915061188b8261184c565b602082019050919050565b5f6020820190508181035f8301526118ad81611874565b9050919050565b7f4e487b71000000000000000000000000000000000000000000000000000000005f52602260045260245ffd5b5f60028204905060018216806118f857607f821691505b60208210810361190b5761190a6118b4565b5b50919050565b5f819050815f5260205f209050919050565b5f6020601f8301049050919050565b5f82821b905092915050565b5f6008830261196d7fffffffffffffffffffffffffffffffffffffffffffffffffffffffffffffffff82611932565b6119778683611932565b95508019841693508086168417925050509392505050565b5f819050919050565b5f6119b26119ad6119a88461127f565b61198f565b61127f565b9050919050565b5f819050919050565b6119cb83611998565b6119df6119d7826119b9565b84845461193e565b825550505050565b5f90565b6119f36119e7565b6119fe8184846119c2565b505050565b5b81811015611a2157611a165f826119eb565b600181019050611a04565b5050565b601f821115611a6657611a3781611911565b611a4084611923565b81016020851015611a4f578190505b611a63611a5b85611923565b830182611a03565b50505b505050565b5f82821c905092915050565b5f611a865f1984600802611a6b565b1980831691505092915050565b5f611a9e8383611a77565b9150826002028217905092915050565b611ab782611463565b67ffffffffffffffff811115611ad057611acf6115c9565b5b611ada82546118e1565b611ae5828285611a25565b5f60209050601f831160018114611b16575f8415611b04578287015190505b611b0e8582611a93565b865550611b75565b601f198416611b2486611911565b5f5b82811015611b4b57848901518255600182019150602085019450602081019050611b26565b86831015611b685784890151611b64601f891682611a77565b8355505b6001600288020188555050505b505050505050565b5f6040820190508181035f830152611b9581856117c3565b90508181036020830152611ba981846117c3565b90509392505050565b7f536c6f7420616c726561647920626f6f6b6564000000000000000000000000005f82015250565b5f611be66013836117b3565b9150611bf182611bb2565b602082019050919050565b5f6020820190508181035f830152611c1381611bda565b9050919050565b5f604082019050611c2d5f83018561130d565b611c3a60208301846113d7565b939250505056fea264697066735822122098dbe443082e2835fd1965743ba848a3e11b44b6edd164d032c3862b5934ba2664736f6c63430008140033",
  "linkReferences": {},
  "deployedLinkReferences": {},
  "immutableReferences": {},
  "inputSourceName": "project/contracts/HospitalMedLedger.sol",
  "buildInfoId": "solc-0_8_20-1f271912ebf49a4cd22854a85048b61d5bc8ca7e"
}